:100000000C9434000C9451000C9451000C94510049
:100010000C9451000C9451000C9451000C9451001C
:100020000C9451000C9451000C9451000C9451000C
:100030000C9451000C9451000C9451000C945100FC
:100040000C9451000C9451000C9451000C945100EC
:100050000C9451000C9451000C9451000C945100DC
:100060000C9451000C94510011241FBECFEFD8E026
:10007000DEBFCDBF11E0A0E0B1E0ECEAFBE002C0E2
:1000800005900D92A235B107D9F721E0A2E5B1E0C4
:1000900001C01D92AA36B207E1F70E9434010C9408
:1000A000D4050C9400009091C00095FFFCCF809384
:1000B000C6000895CF93DF93EC018991811103C0AD
:1000C000DF91CF9108950E945300F7CF0E945A000C
:1000D0008AE00C945300382F90E080E029B124701E
:1000E000231308950196803E2EE29207B9F790E01F
:1000F00080E00895CF93DF9300D000D01F92CDB75A
:10010000DEB74AE0BE016F5F7F4F90E00E94970527
:10011000CE0101960E945A000F900F900F900F9001
:100120000F90DF91CF910895883058F49AB121E073
:1001300030E001C0220F8A95EAF7892F822B8AB915
:1001400008958E3070F424B18850990B41E050E04E
:10015000BA0102C0660F771F8A95E2F7CB01822BA6
:1001600084B90895863091F028F4833001F1853008
:1001700089F008958A3089F08B3099F08930B1F494
:10018000809180008F7780938000089584B58F7769
:1001900084BD089584B58F7DFBCF809180008F7DD5
:1001A000F2CF8091B0008F778093B0000895809156
:1001B000B0008F7DF9CFCF93DF93C82FD62F0E9449
:1001C00094008C2F0E94B200C83088F481E090E047
:1001D00001C0880FCA95EAF79BB1DD2329F0892B6E
:1001E0008BB9DF91CF91089580958923F9CFCE30D7
:1001F000C0F7C85081E090E001C0880FCA95EAF7C7
:1002000095B1DD2319F0892B85B9EBCF8095892332
:10021000FBCF86E00E94940086E00E94B2008BB182
:1002200080649BB19F7B2FB7F894E2E5F1E031E069
:10023000EA36F30741F42FBF8FE391E00197F1F71E
:1002400000C000000895319148E08BB9000000C063
:1002500037FF9BB9330F000000C000C000C09BB93E
:1002600000C04A9591F7E3CFCF93DF93CDB7DEB7C8
:10027000E0970FB6F894DEBF0FBECDBF82E00E94BC
:10028000940083E00E94940084E00E94940085E042
:100290000E94940086E00E9494001092C50080E1C4
:1002A0008093C40092E09093C00088E18093C100E5
:1002B00086E08093C20083E084BD95BD91E0909379
:1002C00080009AE0909381008093B00084E0809356
:1002D000B10080E480937C0087E880937A0080E01E
:1002E00091E00E94660080E032E0432E6E0129E238
:1002F000C20ED11CAA24A394B12C5AE6252E51E09B
:10030000352E9091C00097FFFCCF9091C6009D3094
:10031000C1F3282F30E09A3009F06BC341E050E080
:100320004C0F5D1F240F351FF90110829A018901BE
:10033000F90180812F5F3F4F8032C9F38930B9F3D3
:1003400001900020E9F73197E01BF10B8E2FE00FB1
:10035000F12FF11D8823A9F29291903271F099301A
:1003600061F060E471E0C8010E948E05892B59F4A8
:1003700086E091E00E94660026C18150D801A80F56
:10038000B11D1C92E7CF63E171E0C8010E948E05A8
:10039000892B09F060C085E0F60111928A95E9F792
:1003A000529A5A98FFEF29EF40E0F1502040404028
:1003B000E1F700C000005A9A55ED5A95F1F7000098
:1003C00052985A9A65E36A95F1F7000080E00E941E
:1003D0006B00892B09F41AC384E00E946B00892BFF
:1003E00009F414C3F12C80E00E946B008C0184E0BE
:1003F0000E946B009C010115110509F407C3892BAC
:1004000009F404C3EF2DE695E695E695EC0DFD2D78
:10041000F11D9081990F02171307D8F09083F39480
:1004200088E2F812E0CF19A50BA58AA5810F800FED
:100430009CA5890F9DA58913E9C285E491E00E94DE
:100440005A00802F0E947A008CE20E945300812F74
:10045000EFC09160E3CFF801E080FEE4EF1277C0D7
:10046000F8019180F3E59F1205C00E94090187E120
:1004700091E080CF6AE370E0C8010E948305009795
:1004800019F48AE191E076CF7C012FEFE21AF20AAB
:100490006CE270E0C7010E94830541E4941221C020
:1004A000009779F38C010F5F1F4F6CE270E0C80179
:1004B0000E948305009729F301960E946505982EF6
:1004C000C8010E946505182FC7010E946505E2E575
:1004D000F1E010838183928233962E163F06C9F78E
:1004E000C4CF009771F28C010F5F1F4F6CE270E078
:1004F000C8010E948305009721F24C015FEF851A25
:10050000950A6CE270E0C4010E948305009709F42B
:10051000B8CF01960E946505782EC4010E9465053A
:10052000982EC8010E946505182FC7010E94650515
:10053000883008F09CCF9927FC01EE0FFF1FE80FD1
:10054000F91FEE5AFE4F90821183728290CF6AE3B8
:1005500070E0C8010E9483054C0161E4E61235C0D9
:10056000892B09F083C0C80101960E9465058C01A2
:1005700085E291E00830110508F0FCCE802F806400
:1005800080937C0080917A00806480937A008091CF
:100590007A0086FDFCCFE0907800F090790081E44D
:1005A0000E945300802F0E947A008AE30E94530029
:1005B0004AE0B601C7010E949705C6010E945A0091
:1005C0008AE00E94530080E09CCE82E5E8124AC097
:1005D0008114910409F04AC0C80101960E94650582
:1005E0008C018E30910518F08CE291E0C3CE8830FA
:1005F00010F52AB1C501002E01C0880F0A94EAF750
:10060000809582238AB989B190E0002E02C0959529
:1006100087950A94E2F7A82FA170FA2E82E50E942E
:100620005300802F0E947A008AE30E9453008F2D8E
:100630000E947A00C5CF34B128EF280FC501022EE1
:1006400001C0880F0A94EAF78095832384B983B1A7
:1006500090E002C0959587952A95E2F7E82FE17022
:10066000FE2EDCCF8114910409F40BCFC801019652
:100670000E946505F82E592EFFEF8F1A9F0AC401BC
:100680000E9465058C016F2C752C2EE0621671049A
:1006900008F0AACF4CE4E41208C061E0892B09F409
:1006A00060E08F2D0E94DB00E2CE50E5E5125CC0D9
:1006B0008F3F910519F014F00FEF10E017FF02C003
:1006C00010E000E0E02E8F2D0E949400002341F303
:1006D0006FEF061302C061E0E4CF86E0F81601F187
:1006E0008F1558F093E0F916B9F1A5E0FA16E9F084
:1006F0006E2D661F6627661FD4CFEAE0FE16D1F086
:10070000FBE0FF1609F129E0F212F2CF80918000A0
:100710008068809380001093890000938800A7CEA2
:1007200084B5806884BD07BDA2CE84B5806284BDD7
:1007300008BD9DCE809180008062809380001093E0
:100740008B0000938A0093CE8091B00080688093E4
:10075000B0000093B3008BCE8091B0008062809394
:10076000B0000093B40083CE44E5E41285C06CE28F
:1007700070E0C4010E948305009709F44AC1019604
:100780000E9465054C01101611060CF070CE18166B
:1007900019060CF06CCE8F2D0E9494008F2D0E94B4
:1007A000B20017FF02C010E000E060E271EA87E0EB
:1007B00090E09801012E000C440B550B0E9425057A
:1007C000E22E532E940151ED851657E0950614F054
:1007D00020ED37E0D8010E94470528EE33E040E0E5
:1007E00050E00E94250568E0661A7108D50101C035
:1007F000AA0F6A94EAF76A2FC5010F2C01C0880F6F
:100800000A94EAF7E82FFA2FF095782F7095612C6B
:10081000712C4301261537054805590509F427CEE3
:1008200087E08F1530F08BB18E2B8BB98E2D952DE7
:1008300008C085B1862B85B9F9CFA5E0AA95F1F757
:1008400000000197D0F787E08F1530F08BB1872338
:100850008BB98E2D952D08C085B18F2385B9F9CF21
:10086000A5E0AA95F1F700000197D0F78FEF681A7D
:10087000780A880A980ACECF95E5E912B7C00E30FB
:10088000110508F0B1CEE02EA7E0A01708F475C05E
:100890002AB1C501002E01C0880F0A94EAF780959D
:1008A00082238AB960E08F2D0E94DB00FAE0FA957E
:1008B000F1F700C061E08F2D0E94DB0025E32A954F
:1008C000F1F7000060E08F2D0E94DB005091800066
:1008D000409181001092800040928100109285002A
:1008E0001092840098012850310987E08E1508F491
:1008F00062C089B190E0002E02C0959587950A9458
:10090000E2F7817009F447C01092850010928400CC
:10091000980128503109E7E0EE1508F45EC089B16E
:1009200090E0002E02C0959587950A94E2F78170B9
:1009300009F04AC080918400909185005093800016
:100940004093810064E770E00E941105CB01B0E0A4
:10095000A0E0AB01BD014150510961097109403965
:1009600051406105710518F54AE0B6010E949705EE
:1009700084E391E00E945A0020CE24B1C801089778
:10098000F50102C0EE0FFF1F8A95E2F7CF018095B7
:10099000822384B987CF809184009091850081362D
:1009A0009A4E08F4A2CF50938000409381008FEFBD
:1009B0009FEFDC01D9CF83B190E0022E02C0959564
:1009C00087950A94E2F79DCF8091840090918500ED
:1009D00081369A4E08F49FCFE6CF83B190E0022E85
:1009E00002C0959587950A94E2F7A1CF88E391E03C
:1009F000C1CC873208F085CC8F5F41E050E04C0FCE
:100A00005D1F240F351FF90190837BCC8AE491E0B0
:100A1000B1CC88EC882E912C101611060CF4BBCEAC
:100A200026CDAA1BBB1B51E107C0AA1FBB1FA617DF
:100A3000B70710F0A61BB70B881F991F5A95A9F787
:100A400080959095BC01CD010895A1E21A2EAA1BB4
:100A5000BB1BFD010DC0AA1FBB1FEE1FFF1FA2176E
:100A6000B307E407F50720F0A21BB30BE40BF50B6B
:100A7000661F771F881F991F1A9469F760957095F4
:100A8000809590959B01AC01BD01CF0108950E9416
:100A90004F05332312F48A1B9B0B0C946005A29F15
:100AA000B001B39FC001A39F700D811D1124911D42
:100AB000B29F700D811D1124911D08950E944F0554
:100AC000B7FF0895821B930B0895FC01882799278F
:100AD000E89421912032E9F3293010F02E30C8F348
:100AE0002B3241F02D3239F4689404C00E94A205E3
:100AF000820F911D219120532A30C0F31EF490954E
:100B000081959F4F0895FC018191861721F08823DC
:100B1000D9F7992708953197CF010895FB01DC019A
:100B20008D91019080190110D9F3990B0895BB277D
:100B30004A3031F4992322F4BDE2909581959F4F7C
:100B40000C94AB057AE0979F902D879F802D910D97
:100B500011240895BB27FB015527AA27880F991F49
:100B6000AA1FA41710F0A41B83955051B9F7A05DDC
:100B7000AA3308F0A95DA193009779F7B111B19359
:100B80001192CB010C94C405DC01FC01672F71911B
:100B90007723E1F7329704C07C916D937083629163
:0C0BA000AE17BF07C8F30895F894FFCF0C
:100BAC00524541445900504C4159484F55534520EA
:100BBC00763500444854004F4B004552523A666F0C
:100BCC00726D6174004552523A6368004552523A54
:100BDC0070696E0055533A004552523A636D640089
:100BEC0050494E47004448543A004552523A6468C2
:020BFC00740083
:00000001FF
